{"abi":[{"type":"constructor","inputs":[{"name":"_client","type":"address","internalType":"address"},{"name":"_arbiter","type":"address","internalType":"address"},{"name":"_amount","type":"uint256","internalType":"uint256"},{"name":"_freelancer","type":"address","internalType":"address"}],"stateMutability":"nonpayable"},{"type":"function","name":"approve","inputs":[],"outputs":[],"stateMutability":"nonpayable"},{"type":"function","name":"cancel","inputs":[],"outputs":[],"stateMutability":"nonpayable"},{"type":"function","name":"deposit","inputs":[],"outputs":[],"stateMutability":"payable"},{"type":"function","name":"getAmount","inputs":[],"outputs":[{"name":"","type":"uint256","internalType":"uint256"}],"stateMutability":"view"},{"type":"function","name":"getArbiter","inputs":[],"outputs":[{"name":"","type":"address","internalType":"address"}],"stateMutability":"view"},{"type":"function","name":"getClient","inputs":[],"outputs":[{"name":"","type":"address","internalType":"address"}],"stateMutability":"view"},{"type":"function","name":"getFreelancer","inputs":[],"outputs":[{"name":"","type":"address","internalType":"address"}],"stateMutability":"view"},{"type":"function","name":"raiseDispute","inputs":[],"outputs":[],"stateMutability":"nonpayable"},{"type":"function","name":"resolveDispute","inputs":[{"name":"decision","type":"bool","internalType":"bool"}],"outputs":[],"stateMutability":"nonpayable"},{"type":"function","name":"state","inputs":[],"outputs":[{"name":"","type":"uint8","internalType":"enum Escrow.Status"}],"stateMutability":"view"},{"type":"event","name":"Deposit","inputs":[{"name":"sender","type":"address","indexed":true,"internalType":"address"},{"name":"amount","type":"uint256","indexed":false,"internalType":"uint256"}],"anonymous":false},{"type":"event","name":"RaiseDispute","inputs":[{"name":"raiser","type":"address","indexed":true,"internalType":"address"}],"anonymous":false},{"type":"event","name":"Withdraw","inputs":[{"name":"receiver","type":"address","indexed":true,"internalType":"address"},{"name":"amount","type":"uint256","indexed":false,"internalType":"uint256"}],"anonymous":false},{"type":"error","name":"DepositCorrectAmount","inputs":[]},{"type":"error","name":"FailedTransfer","inputs":[]},{"type":"error","name":"InvalidStatus","inputs":[]},{"type":"error","name":"NotAllowed","inputs":[]},{"type":"error","name":"OnlyClientAllowed","inputs":[]},{"type":"error","name":"OnlyFreelancerCanWithdraw","inputs":[]}],"bytecode":{"object":"0x608060405234801561000f575f5ffd5b5060405161112c38038061112c833981810160405281019061003191906101ba565b835f5f6101000a81548173ffffffffffffffffffffffffffffffffffffffff021916908373ffffffffffffffffffffffffffffffffffffffff1602179055508260025f6101000a81548173ffffffffffffffffffffffffffffffffffffffff021916908373ffffffffffffffffffffffffffffffffffffffff160217905550816003819055508060015f6101000a81548173ffffffffffffffffffffffffffffffffffffffff021916908373ffffffffffffffffffffffffffffffffffffffff1602179055505f60045f6101000a81548160ff0219169083600481111561011b5761011a61021e565b5b02179055505050505061024b565b5f5ffd5b5f73ffffffffffffffffffffffffffffffffffffffff82169050919050565b5f6101568261012d565b9050919050565b6101668161014c565b8114610170575f5ffd5b50565b5f815190506101818161015d565b92915050565b5f819050919050565b61019981610187565b81146101a3575f5ffd5b50565b5f815190506101b481610190565b92915050565b5f5f5f5f608085870312156101d2576101d1610129565b5b5f6101df87828801610173565b94505060206101f087828801610173565b9350506040610201878288016101a6565b925050606061021287828801610173565b91505092959194509250565b7f4e487b71000000000000000000000000000000000000000000000000000000005f52602160045260245ffd5b610ed4806102585f395ff3fe608060405260043610610090575f3560e01c8063cffe00f911610058578063cffe00f91461013c578063d0e30db014610166578063d321fe2914610170578063de6857c01461019a578063ea8a1af0146101c457610090565b806312424e3f1461009457806359dc735c146100aa5780636daa2d44146100d457806389e1e82a146100ea578063c19d93fb14610112575b5f5ffd5b34801561009f575f5ffd5b506100a86101da565b005b3480156100b5575f5ffd5b506100be610453565b6040516100cb9190610d23565b60405180910390f35b3480156100df575f5ffd5b506100e861047a565b005b3480156100f5575f5ffd5b50610110600480360381019061010b9190610d75565b610635565b005b34801561011d575f5ffd5b5061012661095e565b6040516101339190610e13565b60405180910390f35b348015610147575f5ffd5b50610150610970565b60405161015d9190610d23565b60405180910390f35b61016e610998565b005b34801561017b575f5ffd5b50610184610b3d565b6040516101919190610e44565b60405180910390f35b3480156101a5575f5ffd5b506101ae610b46565b6040516101bb9190610d23565b60405180910390f35b3480156101cf575f5ffd5b506101d8610b6e565b005b5f5f9054906101000a900473ffffffffffffffffffffffffffffffffffffffff1673ffffffffffffffffffffffffffffffffffffffff163373ffffffffffffffffffffffffffffffffffffffff161461025f576040517f62769b2200000000000000000000000000000000000000000000000000000000815260040160405180910390fd5b6001600481111561027357610272610da0565b5b60045f9054906101000a900460ff16600481111561029457610293610da0565b5b146102cb576040517ff525e32000000000000000000000000000000000000000000000000000000000815260040160405180910390fd5b600260045f6101000a81548160ff021916908360048111156102f0576102ef610da0565b5b02179055505f60015f9054906101000a900473ffffffffffffffffffffffffffffffffffffffff1673ffffffffffffffffffffffffffffffffffffffff164760405161033b90610e8a565b5f6040518083038185875af1925050503d805f8114610375576040519150601f19603f3d011682016040523d82523d5f602084013e61037a565b606091505b50509050806103df57600160045f6101000a81548160ff021916908360048111156103a8576103a7610da0565b5b02179055506040517fbfa871c500000000000000000000000000000000000000000000000000000000815260040160405180910390fd5b60015f9054906101000a900473ffffffffffffffffffffffffffffffffffffffff1673ffffffffffffffffffffffffffffffffffffffff167f884edad9ce6fa2440d8a54cc123490eb96d2768479d49ff9c7366125a94243646003546040516104489190610e44565b60405180910390a250565b5f5f5f9054906101000a900473ffffffffffffffffffffffffffffffffffffffff16905090565b5f5f9054906101000a900473ffffffffffffffffffffffffffffffffffffffff1673ffffffffffffffffffffffffffffffffffffffff163373ffffffffffffffffffffffffffffffffffffffff1614158015610523575060015f9054906101000a900473ffffffffffffffffffffffffffffffffffffffff1673ffffffffffffffffffffffffffffffffffffffff163373ffffffffffffffffffffffffffffffffffffffff1614155b1561055a576040517f3d693ada00000000000000000000000000000000000000000000000000000000815260040160405180910390fd5b6001600481111561056e5761056d610da0565b5b60045f9054906101000a900460ff16600481111561058f5761058e610da0565b5b146105c6576040517ff525e32000000000000000000000000000000000000000000000000000000000815260040160405180910390fd5b600360045f6101000a81548160ff021916908360048111156105eb576105ea610da0565b5b02179055503373ffffffffffffffffffffffffffffffffffffffff167f20785e6c21fb840f5041331153a633585af917717a001b3e2042c1172f45916d60405160405180910390a2565b60025f9054906101000a900473ffffffffffffffffffffffffffffffffffffffff1673ffffffffffffffffffffffffffffffffffffffff163373ffffffffffffffffffffffffffffffffffffffff16146106bb576040517f3d693ada00000000000000000000000000000000000000000000000000000000815260040160405180910390fd5b600360048111156106cf576106ce610da0565b5b60045f9054906101000a900460ff1660048111156106f0576106ef610da0565b5b14610727576040517ff525e32000000000000000000000000000000000000000000000000000000000815260040160405180910390fd5b801561084757600260045f6101000a81548160ff0219169083600481111561075257610751610da0565b5b02179055505f60015f9054906101000a900473ffffffffffffffffffffffffffffffffffffffff1673ffffffffffffffffffffffffffffffffffffffff164760405161079d90610e8a565b5f6040518083038185875af1925050503d805f81146107d7576040519150601f19603f3d011682016040523d82523d5f602084013e6107dc565b606091505b505090508061084157600360045f6101000a81548160ff0219169083600481111561080a57610809610da0565b5b02179055506040517fbfa871c500000000000000000000000000000000000000000000000000000000815260040160405180910390fd5b5061095b565b6004805f6101000a81548160ff0219169083600481111561086b5761086a610da0565b5b02179055505f5f5f9054906101000a900473ffffffffffffffffffffffffffffffffffffffff1673ffffffffffffffffffffffffffffffffffffffff16476040516108b590610e8a565b5f6040518083038185875af1925050503d805f81146108ef576040519150601f19603f3d011682016040523d82523d5f602084013e6108f4565b606091505b505090508061095957600360045f6101000a81548160ff0219169083600481111561092257610921610da0565b5b02179055506040517fbfa871c500000000000000000000000000000000000000000000000000000000815260040160405180910390fd5b505b50565b60045f9054906101000a900460ff1681565b5f60025f9054906101000a900473ffffffffffffffffffffffffffffffffffffffff16905090565b5f5f9054906101000a900473ffffffffffffffffffffffffffffffffffffffff1673ffffffffffffffffffffffffffffffffffffffff163373ffffffffffffffffffffffffffffffffffffffff1614610a1d576040517f62769b2200000000000000000000000000000000000000000000000000000000815260040160405180910390fd5b6003543414610a58576040517f7aa0dc9400000000000000000000000000000000000000000000000000000000815260040160405180910390fd5b5f6004811115610a6b57610a6a610da0565b5b60045f9054906101000a900460ff166004811115610a8c57610a8b610da0565b5b14610ac3576040517ff525e32000000000000000000000000000000000000000000000000000000000815260040160405180910390fd5b600160045f6101000a81548160ff02191690836004811115610ae857610ae7610da0565b5b02179055503373ffffffffffffffffffffffffffffffffffffffff167fe1fffcc4923d04b559f4d29a8bfc6cda04eb5b0d3c460751c2402c5c5cc9109c34604051610b339190610e44565b60405180910390a2565b5f600354905090565b5f60015f9054906101000a900473ffffffffffffffffffffffffffffffffffffffff16905090565b5f5f9054906101000a900473ffffffffffffffffffffffffffffffffffffffff1673ffffffffffffffffffffffffffffffffffffffff163373ffffffffffffffffffffffffffffffffffffffff1614158015610c17575060015f9054906101000a900473ffffffffffffffffffffffffffffffffffffffff1673ffffffffffffffffffffffffffffffffffffffff163373ffffffffffffffffffffffffffffffffffffffff1614155b15610c4e576040517f3d693ada00000000000000000000000000000000000000000000000000000000815260040160405180910390fd5b5f6004811115610c6157610c60610da0565b5b60045f9054906101000a900460ff166004811115610c8257610c81610da0565b5b14610cb9576040517ff525e32000000000000000000000000000000000000000000000000000000000815260040160405180910390fd5b6004805f6101000a81548160ff02191690836004811115610cdd57610cdc610da0565b5b0217905550565b5f73ffffffffffffffffffffffffffffffffffffffff82169050919050565b5f610d0d82610ce4565b9050919050565b610d1d81610d03565b82525050565b5f602082019050610d365f830184610d14565b92915050565b5f5ffd5b5f8115159050919050565b610d5481610d40565b8114610d5e575f5ffd5b50565b5f81359050610d6f81610d4b565b92915050565b5f60208284031215610d8a57610d89610d3c565b5b5f610d9784828501610d61565b91505092915050565b7f4e487b71000000000000000000000000000000000000000000000000000000005f52602160045260245ffd5b60058110610dde57610ddd610da0565b5b50565b5f819050610dee82610dcd565b919050565b5f610dfd82610de1565b9050919050565b610e0d81610df3565b82525050565b5f602082019050610e265f830184610e04565b92915050565b5f819050919050565b610e3e81610e2c565b82525050565b5f602082019050610e575f830184610e35565b92915050565b5f81905092915050565b50565b5f610e755f83610e5d565b9150610e8082610e67565b5f82019050919050565b5f610e9482610e6a565b915081905091905056fea2646970667358221220c1d11e897aac7b8d542167c6b79c1cfc9e17c16aa7a9fa578d16d54ba46684b964736f6c634300081e0033","linkReferences":{}},"methodIdentifiers":{"approve()":"12424e3f","cancel()":"ea8a1af0","deposit()":"d0e30db0","getAmount()":"d321fe29","getArbiter()":"cffe00f9","getClient()":"59dc735c","getFreelancer()":"de6857c0","raiseDispute()":"6daa2d44","resolveDispute(bool)":"89e1e82a","state()":"c19d93fb"},"id":19}