{"abi":[{"type":"function","name":"createContract","inputs":[{"name":"arbiter","type":"address","internalType":"address"},{"name":"client","type":"address","internalType":"address"},{"name":"freelancer","type":"address","internalType":"address"},{"name":"amount","type":"uint256","internalType":"uint256"}],"outputs":[],"stateMutability":"nonpayable"},{"type":"function","name":"getClientContracts","inputs":[{"name":"client","type":"address","internalType":"address"}],"outputs":[{"name":"","type":"address[]","internalType":"address[]"}],"stateMutability":"view"},{"type":"function","name":"getFreelancerContracts","inputs":[{"name":"freelancer","type":"address","internalType":"address"}],"outputs":[{"name":"","type":"address[]","internalType":"address[]"}],"stateMutability":"view"},{"type":"event","name":"ContractDeployed","inputs":[{"name":"escrow","type":"address","indexed":true,"internalType":"address"},{"name":"c","type":"address","indexed":false,"internalType":"address"},{"name":"f","type":"address","indexed":false,"internalType":"address"},{"name":"a","type":"address","indexed":false,"internalType":"address"},{"name":"amount","type":"uint256","indexed":false,"internalType":"uint256"}],"anonymous":false}],"bytecode":{"object":"0x6080604052348015600e575f5ffd5b506118228061001c5f395ff3fe608060405234801561000f575f5ffd5b506004361061003f575f3560e01c80631ad72481146100435780634bf97b5f14610073578063f134a75a1461008f575b5f5ffd5b61005d60048036038101906100589190610483565b6100bf565b60405161006a9190610565565b60405180910390f35b61008d600480360381019061008891906105b8565b610187565b005b6100a960048036038101906100a49190610483565b610351565b6040516100b69190610565565b60405180910390f35b606060015f8373ffffffffffffffffffffffffffffffffffffffff1673ffffffffffffffffffffffffffffffffffffffff1681526020019081526020015f2080548060200260200160405190810160405280929190818152602001828054801561017b57602002820191905f5260205f20905b815f9054906101000a900473ffffffffffffffffffffffffffffffffffffffff1673ffffffffffffffffffffffffffffffffffffffff1681526020019060010190808311610132575b50505050509050919050565b5f8385838560405161019890610418565b6101a5949392919061063a565b604051809103905ff0801580156101be573d5f5f3e3d5ffd5b5090505f5f8573ffffffffffffffffffffffffffffffffffffffff1673ffffffffffffffffffffffffffffffffffffffff1681526020019081526020015f2081908060018154018082558091505060019003905f5260205f20015f9091909190916101000a81548173ffffffffffffffffffffffffffffffffffffffff021916908373ffffffffffffffffffffffffffffffffffffffff16021790555060015f8473ffffffffffffffffffffffffffffffffffffffff1673ffffffffffffffffffffffffffffffffffffffff1681526020019081526020015f2081908060018154018082558091505060019003905f5260205f20015f9091909190916101000a81548173ffffffffffffffffffffffffffffffffffffffff021916908373ffffffffffffffffffffffffffffffffffffffff1602179055508073ffffffffffffffffffffffffffffffffffffffff167f6243906238387b4d96a9ca7ada828c1a07a6e5e02555ea23e710b309f2af598385858886604051610342949392919061067d565b60405180910390a25050505050565b60605f5f8373ffffffffffffffffffffffffffffffffffffffff1673ffffffffffffffffffffffffffffffffffffffff1681526020019081526020015f2080548060200260200160405190810160405280929190818152602001828054801561040c57602002820191905f5260205f20905b815f9054906101000a900473ffffffffffffffffffffffffffffffffffffffff1673ffffffffffffffffffffffffffffffffffffffff16815260200190600101908083116103c3575b50505050509050919050565b61112c806106c183390190565b5f5ffd5b5f73ffffffffffffffffffffffffffffffffffffffff82169050919050565b5f61045282610429565b9050919050565b61046281610448565b811461046c575f5ffd5b50565b5f8135905061047d81610459565b92915050565b5f6020828403121561049857610497610425565b5b5f6104a58482850161046f565b91505092915050565b5f81519050919050565b5f82825260208201905092915050565b5f819050602082019050919050565b6104e081610448565b82525050565b5f6104f183836104d7565b60208301905092915050565b5f602082019050919050565b5f610513826104ae565b61051d81856104b8565b9350610528836104c8565b805f5b8381101561055857815161053f88826104e6565b975061054a836104fd565b92505060018101905061052b565b5085935050505092915050565b5f6020820190508181035f83015261057d8184610509565b905092915050565b5f819050919050565b61059781610585565b81146105a1575f5ffd5b50565b5f813590506105b28161058e565b92915050565b5f5f5f5f608085870312156105d0576105cf610425565b5b5f6105dd8782880161046f565b94505060206105ee8782880161046f565b93505060406105ff8782880161046f565b9250506060610610878288016105a4565b91505092959194509250565b61062581610448565b82525050565b61063481610585565b82525050565b5f60808201905061064d5f83018761061c565b61065a602083018661061c565b610667604083018561062b565b610674606083018461061c565b95945050505050565b5f6080820190506106905f83018761061c565b61069d602083018661061c565b6106aa604083018561061c565b6106b7606083018461062b565b9594505050505056fe608060405234801561000f575f5ffd5b5060405161112c38038061112c833981810160405281019061003191906101ba565b835f5f6101000a81548173ffffffffffffffffffffffffffffffffffffffff021916908373ffffffffffffffffffffffffffffffffffffffff1602179055508260025f6101000a81548173ffffffffffffffffffffffffffffffffffffffff021916908373ffffffffffffffffffffffffffffffffffffffff160217905550816003819055508060015f6101000a81548173ffffffffffffffffffffffffffffffffffffffff021916908373ffffffffffffffffffffffffffffffffffffffff1602179055505f60045f6101000a81548160ff0219169083600481111561011b5761011a61021e565b5b02179055505050505061024b565b5f5ffd5b5f73ffffffffffffffffffffffffffffffffffffffff82169050919050565b5f6101568261012d565b9050919050565b6101668161014c565b8114610170575f5ffd5b50565b5f815190506101818161015d565b92915050565b5f819050919050565b61019981610187565b81146101a3575f5ffd5b50565b5f815190506101b481610190565b92915050565b5f5f5f5f608085870312156101d2576101d1610129565b5b5f6101df87828801610173565b94505060206101f087828801610173565b9350506040610201878288016101a6565b925050606061021287828801610173565b91505092959194509250565b7f4e487b71000000000000000000000000000000000000000000000000000000005f52602160045260245ffd5b610ed4806102585f395ff3fe608060405260043610610090575f3560e01c8063cffe00f911610058578063cffe00f91461013c578063d0e30db014610166578063d321fe2914610170578063de6857c01461019a578063ea8a1af0146101c457610090565b806312424e3f1461009457806359dc735c146100aa5780636daa2d44146100d457806389e1e82a146100ea578063c19d93fb14610112575b5f5ffd5b34801561009f575f5ffd5b506100a86101da565b005b3480156100b5575f5ffd5b506100be610453565b6040516100cb9190610d23565b60405180910390f35b3480156100df575f5ffd5b506100e861047a565b005b3480156100f5575f5ffd5b50610110600480360381019061010b9190610d75565b610635565b005b34801561011d575f5ffd5b5061012661095e565b6040516101339190610e13565b60405180910390f35b348015610147575f5ffd5b50610150610970565b60405161015d9190610d23565b60405180910390f35b61016e610998565b005b34801561017b575f5ffd5b50610184610b3d565b6040516101919190610e44565b60405180910390f35b3480156101a5575f5ffd5b506101ae610b46565b6040516101bb9190610d23565b60405180910390f35b3480156101cf575f5ffd5b506101d8610b6e565b005b5f5f9054906101000a900473ffffffffffffffffffffffffffffffffffffffff1673ffffffffffffffffffffffffffffffffffffffff163373ffffffffffffffffffffffffffffffffffffffff161461025f576040517f62769b2200000000000000000000000000000000000000000000000000000000815260040160405180910390fd5b6001600481111561027357610272610da0565b5b60045f9054906101000a900460ff16600481111561029457610293610da0565b5b146102cb576040517ff525e32000000000000000000000000000000000000000000000000000000000815260040160405180910390fd5b600260045f6101000a81548160ff021916908360048111156102f0576102ef610da0565b5b02179055505f60015f9054906101000a900473ffffffffffffffffffffffffffffffffffffffff1673ffffffffffffffffffffffffffffffffffffffff164760405161033b90610e8a565b5f6040518083038185875af1925050503d805f8114610375576040519150601f19603f3d011682016040523d82523d5f602084013e61037a565b606091505b50509050806103df57600160045f6101000a81548160ff021916908360048111156103a8576103a7610da0565b5b02179055506040517fbfa871c500000000000000000000000000000000000000000000000000000000815260040160405180910390fd5b60015f9054906101000a900473ffffffffffffffffffffffffffffffffffffffff1673ffffffffffffffffffffffffffffffffffffffff167f884edad9ce6fa2440d8a54cc123490eb96d2768479d49ff9c7366125a94243646003546040516104489190610e44565b60405180910390a250565b5f5f5f9054906101000a900473ffffffffffffffffffffffffffffffffffffffff16905090565b5f5f9054906101000a900473ffffffffffffffffffffffffffffffffffffffff1673ffffffffffffffffffffffffffffffffffffffff163373ffffffffffffffffffffffffffffffffffffffff1614158015610523575060015f9054906101000a900473ffffffffffffffffffffffffffffffffffffffff1673ffffffffffffffffffffffffffffffffffffffff163373ffffffffffffffffffffffffffffffffffffffff1614155b1561055a576040517f3d693ada00000000000000000000000000000000000000000000000000000000815260040160405180910390fd5b6001600481111561056e5761056d610da0565b5b60045f9054906101000a900460ff16600481111561058f5761058e610da0565b5b146105c6576040517ff525e32000000000000000000000000000000000000000000000000000000000815260040160405180910390fd5b600360045f6101000a81548160ff021916908360048111156105eb576105ea610da0565b5b02179055503373ffffffffffffffffffffffffffffffffffffffff167f20785e6c21fb840f5041331153a633585af917717a001b3e2042c1172f45916d60405160405180910390a2565b60025f9054906101000a900473ffffffffffffffffffffffffffffffffffffffff1673ffffffffffffffffffffffffffffffffffffffff163373ffffffffffffffffffffffffffffffffffffffff16146106bb576040517f3d693ada00000000000000000000000000000000000000000000000000000000815260040160405180910390fd5b600360048111156106cf576106ce610da0565b5b60045f9054906101000a900460ff1660048111156106f0576106ef610da0565b5b14610727576040517ff525e32000000000000000000000000000000000000000000000000000000000815260040160405180910390fd5b801561084757600260045f6101000a81548160ff0219169083600481111561075257610751610da0565b5b02179055505f60015f9054906101000a900473ffffffffffffffffffffffffffffffffffffffff1673ffffffffffffffffffffffffffffffffffffffff164760405161079d90610e8a565b5f6040518083038185875af1925050503d805f81146107d7576040519150601f19603f3d011682016040523d82523d5f602084013e6107dc565b606091505b505090508061084157600360045f6101000a81548160ff0219169083600481111561080a57610809610da0565b5b02179055506040517fbfa871c500000000000000000000000000000000000000000000000000000000815260040160405180910390fd5b5061095b565b6004805f6101000a81548160ff0219169083600481111561086b5761086a610da0565b5b02179055505f5f5f9054906101000a900473ffffffffffffffffffffffffffffffffffffffff1673ffffffffffffffffffffffffffffffffffffffff16476040516108b590610e8a565b5f6040518083038185875af1925050503d805f81146108ef576040519150601f19603f3d011682016040523d82523d5f602084013e6108f4565b606091505b505090508061095957600360045f6101000a81548160ff0219169083600481111561092257610921610da0565b5b02179055506040517fbfa871c500000000000000000000000000000000000000000000000000000000815260040160405180910390fd5b505b50565b60045f9054906101000a900460ff1681565b5f60025f9054906101000a900473ffffffffffffffffffffffffffffffffffffffff16905090565b5f5f9054906101000a900473ffffffffffffffffffffffffffffffffffffffff1673ffffffffffffffffffffffffffffffffffffffff163373ffffffffffffffffffffffffffffffffffffffff1614610a1d576040517f62769b2200000000000000000000000000000000000000000000000000000000815260040160405180910390fd5b6003543414610a58576040517f7aa0dc9400000000000000000000000000000000000000000000000000000000815260040160405180910390fd5b5f6004811115610a6b57610a6a610da0565b5b60045f9054906101000a900460ff166004811115610a8c57610a8b610da0565b5b14610ac3576040517ff525e32000000000000000000000000000000000000000000000000000000000815260040160405180910390fd5b600160045f6101000a81548160ff02191690836004811115610ae857610ae7610da0565b5b02179055503373ffffffffffffffffffffffffffffffffffffffff167fe1fffcc4923d04b559f4d29a8bfc6cda04eb5b0d3c460751c2402c5c5cc9109c34604051610b339190610e44565b60405180910390a2565b5f600354905090565b5f60015f9054906101000a900473ffffffffffffffffffffffffffffffffffffffff16905090565b5f5f9054906101000a900473ffffffffffffffffffffffffffffffffffffffff1673ffffffffffffffffffffffffffffffffffffffff163373ffffffffffffffffffffffffffffffffffffffff1614158015610c17575060015f9054906101000a900473ffffffffffffffffffffffffffffffffffffffff1673ffffffffffffffffffffffffffffffffffffffff163373ffffffffffffffffffffffffffffffffffffffff1614155b15610c4e576040517f3d693ada00000000000000000000000000000000000000000000000000000000815260040160405180910390fd5b5f6004811115610c6157610c60610da0565b5b60045f9054906101000a900460ff166004811115610c8257610c81610da0565b5b14610cb9576040517ff525e32000000000000000000000000000000000000000000000000000000000815260040160405180910390fd5b6004805f6101000a81548160ff02191690836004811115610cdd57610cdc610da0565b5b0217905550565b5f73ffffffffffffffffffffffffffffffffffffffff82169050919050565b5f610d0d82610ce4565b9050919050565b610d1d81610d03565b82525050565b5f602082019050610d365f830184610d14565b92915050565b5f5ffd5b5f8115159050919050565b610d5481610d40565b8114610d5e575f5ffd5b50565b5f81359050610d6f81610d4b565b92915050565b5f60208284031215610d8a57610d89610d3c565b5b5f610d9784828501610d61565b91505092915050565b7f4e487b71000000000000000000000000000000000000000000000000000000005f52602160045260245ffd5b60058110610dde57610ddd610da0565b5b50565b5f819050610dee82610dcd565b919050565b5f610dfd82610de1565b9050919050565b610e0d81610df3565b82525050565b5f602082019050610e265f830184610e04565b92915050565b5f819050919050565b610e3e81610e2c565b82525050565b5f602082019050610e575f830184610e35565b92915050565b5f81905092915050565b50565b5f610e755f83610e5d565b9150610e8082610e67565b5f82019050919050565b5f610e9482610e6a565b915081905091905056fea2646970667358221220c1d11e897aac7b8d542167c6b79c1cfc9e17c16aa7a9fa578d16d54ba46684b964736f6c634300081e0033a2646970667358221220012ff26b3c2e4f8f0f19aebe013392c03129c96c6e015bfa6299d6f7387971c564736f6c634300081e0033","linkReferences":{}},"methodIdentifiers":{"createContract(address,address,address,uint256)":"4bf97b5f","getClientContracts(address)":"f134a75a","getFreelancerContracts(address)":"1ad72481"},"id":20}